{
  "contractName": "VotingSystem",
  "abi": [
    {
      "inputs": [],
      "stateMutability": "nonpayable",
      "type": "constructor"
    },
    {
      "anonymous": false,
      "inputs": [
        {
          "indexed": false,
          "internalType": "string",
          "name": "name",
          "type": "string"
        }
      ],
      "name": "CandidateAdded",
      "type": "event"
    },
    {
      "anonymous": false,
      "inputs": [
        {
          "indexed": false,
          "internalType": "address",
          "name": "voter",
          "type": "address"
        },
        {
          "indexed": false,
          "internalType": "uint256",
          "name": "candidateIndex",
          "type": "uint256"
        }
      ],
      "name": "VoteCast",
      "type": "event"
    },
    {
      "anonymous": false,
      "inputs": [
        {
          "indexed": false,
          "internalType": "address",
          "name": "voter",
          "type": "address"
        }
      ],
      "name": "VoterRegistered",
      "type": "event"
    },
    {
      "anonymous": false,
      "inputs": [
        {
          "indexed": false,
          "internalType": "string",
          "name": "winningCandidateName",
          "type": "string"
        },
        {
          "indexed": false,
          "internalType": "uint256",
          "name": "winningVoteCount",
          "type": "uint256"
        }
      ],
      "name": "VotingEnded",
      "type": "event"
    },
    {
      "anonymous": false,
      "inputs": [
        {
          "indexed": false,
          "internalType": "uint256",
          "name": "startTime",
          "type": "uint256"
        },
        {
          "indexed": false,
          "internalType": "uint256",
          "name": "endTime",
          "type": "uint256"
        }
      ],
      "name": "VotingStarted",
      "type": "event"
    },
    {
      "inputs": [],
      "name": "admin",
      "outputs": [
        {
          "internalType": "address",
          "name": "",
          "type": "address"
        }
      ],
      "stateMutability": "view",
      "type": "function"
    },
    {
      "inputs": [
        {
          "internalType": "uint256",
          "name": "",
          "type": "uint256"
        }
      ],
      "name": "candidates",
      "outputs": [
        {
          "internalType": "string",
          "name": "name",
          "type": "string"
        },
        {
          "internalType": "uint256",
          "name": "voteCount",
          "type": "uint256"
        }
      ],
      "stateMutability": "view",
      "type": "function"
    },
    {
      "inputs": [
        {
          "internalType": "address",
          "name": "",
          "type": "address"
        }
      ],
      "name": "voters",
      "outputs": [
        {
          "internalType": "bool",
          "name": "isRegistered",
          "type": "bool"
        },
        {
          "internalType": "bool",
          "name": "hasVoted",
          "type": "bool"
        },
        {
          "internalType": "uint256",
          "name": "votedCandidateIndex",
          "type": "uint256"
        }
      ],
      "stateMutability": "view",
      "type": "function"
    },
    {
      "inputs": [],
      "name": "votingEnd",
      "outputs": [
        {
          "internalType": "uint256",
          "name": "",
          "type": "uint256"
        }
      ],
      "stateMutability": "view",
      "type": "function"
    },
    {
      "inputs": [],
      "name": "votingStart",
      "outputs": [
        {
          "internalType": "uint256",
          "name": "",
          "type": "uint256"
        }
      ],
      "stateMutability": "view",
      "type": "function"
    },
    {
      "inputs": [
        {
          "internalType": "string",
          "name": "_name",
          "type": "string"
        }
      ],
      "name": "addCandidate",
      "outputs": [],
      "stateMutability": "nonpayable",
      "type": "function"
    },
    {
      "inputs": [
        {
          "internalType": "address",
          "name": "_voter",
          "type": "address"
        }
      ],
      "name": "registerVoter",
      "outputs": [],
      "stateMutability": "nonpayable",
      "type": "function"
    },
    {
      "inputs": [
        {
          "internalType": "uint256",
          "name": "_durationInMinutes",
          "type": "uint256"
        }
      ],
      "name": "startVoting",
      "outputs": [],
      "stateMutability": "nonpayable",
      "type": "function"
    },
    {
      "inputs": [
        {
          "internalType": "uint256",
          "name": "_candidateIndex",
          "type": "uint256"
        }
      ],
      "name": "vote",
      "outputs": [],
      "stateMutability": "nonpayable",
      "type": "function"
    },
    {
      "inputs": [],
      "name": "endVoting",
      "outputs": [],
      "stateMutability": "nonpayable",
      "type": "function"
    },
    {
      "inputs": [],
      "name": "getCandidateCount",
      "outputs": [
        {
          "internalType": "uint256",
          "name": "",
          "type": "uint256"
        }
      ],
      "stateMutability": "view",
      "type": "function"
    },
    {
      "inputs": [],
      "name": "getVotingTimeRemaining",
      "outputs": [
        {
          "internalType": "uint256",
          "name": "",
          "type": "uint256"
        }
      ],
      "stateMutability": "view",
      "type": "function"
    }
  ],
  "bytecode": "0x60806040523480156200001157600080fd5b50600073ffffffffffffffffffffffffffffffffffffffff163373ffffffffffffffffffffffffffffffffffffffff160362000084576040517f08c379a00000000000000000000000000000000000000000000000000000000081526004016200007b906200013b565b60405180910390fd5b336000806101000a81548173ffffffffffffffffffffffffffffffffffffffff021916908373ffffffffffffffffffffffffffffffffffffffff160217905550600060038190555060006004819055506200015d565b600082825260208201905092915050565b7f496e76616c6964206465706c6f79657220616464726573730000000000000000600082015250565b600062000123601883620000da565b91506200013082620000eb565b602082019050919050565b60006020820190508181036000830152620001568162000114565b9050919050565b611bc4806200016d6000396000f3fe608060405234801561001057600080fd5b50600436106100b45760003560e01c8063462e91ec11610071578063462e91ec1461017a578063499499011461019657806385a38635146101b4578063a3ec138d146101d2578063c3403ddf14610204578063f851a4401461020e576100b4565b80630121b93f146100b9578063101158af146100d557806330a56347146100f35780633477ee2e1461011157806338db6dd3146101425780633d2f5bda1461015e575b600080fd5b6100d360048036038101906100ce9190610efe565b61022c565b005b6100dd610459565b6040516100ea9190610f3a565b60405180910390f35b6100fb61045f565b6040516101089190610f3a565b60405180910390f35b61012b60048036038101906101269190610efe565b61046c565b604051610139929190610fee565b60405180910390f35b61015c6004803603810190610157919061107c565b610528565b005b61017860048036038101906101739190610efe565b6107e2565b005b610194600480360381019061018f91906111de565b6109a7565b005b61019e610b62565b6040516101ab9190610f3a565b60405180910390f35b6101bc610bab565b6040516101c99190610f3a565b60405180910390f35b6101ec60048036038101906101e7919061107c565b610bb1565b6040516101fb93929190611242565b60405180910390f35b61020c610bf5565b005b610216610ded565b6040516102239190611288565b60405180910390f35b60006003541415801561024157506003544210155b801561024f57506004544211155b61028e576040517f08c379a0000000000000000000000000000000000000000000000000000000008152600401610285906112ef565b60405180910390fd5b6000600160003373ffffffffffffffffffffffffffffffffffffffff1673ffffffffffffffffffffffffffffffffffffffff16815260200190815260200160002090508060000160009054906101000a900460ff16610322576040517f08c379a00000000000000000000000000000000000000000000000000000000081526004016103199061135b565b60405180910390fd5b8060000160019054906101000a900460ff1615610374576040517f08c379a000000000000000000000000000000000000000000000000000000000815260040161036b906113c7565b60405180910390fd5b60028054905082106103bb576040517f08c379a00000000000000000000000000000000000000000000000000000000081526004016103b290611433565b60405180910390fd5b60018160000160016101000a81548160ff021916908315150217905550818160010181905550600282815481106103f5576103f4611453565b5b90600052602060002090600202016001016000815480929190610417906114b1565b91905055507fa36cc2bebb74db33e9f88110a07ef56e1b31b24b4c4f51b54b1664266e29f45b338360405161044d9291906114f9565b60405180910390a15050565b60035481565b6000600280549050905090565b6002818154811061047c57600080fd5b906000526020600020906002020160009150905080600001805461049f90611551565b80601f01602080910402602001604051908101604052809291908181526020018280546104cb90611551565b80156105185780601f106104ed57610100808354040283529160200191610518565b820191906000526020600020905b8154815290600101906020018083116104fb57829003601f168201915b5050505050908060010154905082565b60008054906101000a900473ffffffffffffffffffffffffffffffffffffffff1673ffffffffffffffffffffffffffffffffffffffff163373ffffffffffffffffffffffffffffffffffffffff16146105b6576040517f08c379a00000000000000000000000000000000000000000000000000000000081526004016105ad906115f4565b60405180910390fd5b6000600354146105fb576040517f08c379a00000000000000000000000000000000000000000000000000000000081526004016105f290611660565b60405180910390fd5b600073ffffffffffffffffffffffffffffffffffffffff168173ffffffffffffffffffffffffffffffffffffffff160361066a576040517f08c379a0000000000000000000000000000000000000000000000000000000008152600401610661906116cc565b60405180910390fd5b600160008273ffffffffffffffffffffffffffffffffffffffff1673ffffffffffffffffffffffffffffffffffffffff16815260200190815260200160002060000160009054906101000a900460ff16156106fa576040517f08c379a00000000000000000000000000000000000000000000000000000000081526004016106f190611738565b60405180910390fd5b60405180606001604052806001151581526020016000151581526020016000815250600160008373ffffffffffffffffffffffffffffffffffffffff1673ffffffffffffffffffffffffffffffffffffffff16815260200190815260200160002060008201518160000160006101000a81548160ff02191690831515021790555060208201518160000160016101000a81548160ff021916908315150217905550604082015181600101559050507fb6be2187d059cc2a55fe29e0e503b566e1e0f8c8780096e185429350acffd3dd816040516107d79190611288565b60405180910390a150565b60008054906101000a900473ffffffffffffffffffffffffffffffffffffffff1673ffffffffffffffffffffffffffffffffffffffff163373ffffffffffffffffffffffffffffffffffffffff1614610870576040517f08c379a0000000000000000000000000000000000000000000000000000000008152600401610867906115f4565b60405180910390fd5b6000600354146108b5576040517f08c379a00000000000000000000000000000000000000000000000000000000081526004016108ac90611660565b60405180910390fd5b6002808054905010156108fd576040517f08c379a00000000000000000000000000000000000000000000000000000000081526004016108f4906117a4565b60405180910390fd5b60008111610940576040517f08c379a000000000000000000000000000000000000000000000000000000000815260040161093790611836565b60405180910390fd5b42600381905550603c816109549190611856565b60035461096191906118b0565b6004819055507ff8c022056754dbacca05aff710dc315a2fa7699ae9309fda403cd1e55c11d40f60035460045460405161099c929190611906565b60405180910390a150565b60008054906101000a900473ffffffffffffffffffffffffffffffffffffffff1673ffffffffffffffffffffffffffffffffffffffff163373ffffffffffffffffffffffffffffffffffffffff1614610a35576040517f08c379a0000000000000000000000000000000000000000000000000000000008152600401610a2c906115f4565b60405180910390fd5b600060035414610a7a576040517f08c379a0000000000000000000000000000000000000000000000000000000008152600401610a7190611660565b60405180910390fd5b6000815111610abe576040517f08c379a0000000000000000000000000000000000000000000000000000000008152600401610ab59061197b565b60405180910390fd5b60026040518060400160405280838152602001600081525090806001815401808255809150506001900390600052602060002090600202016000909190919091506000820151816000019080519060200190610b1b929190610e11565b506020820151816001015550507ff29562dad1599aea0ebb142466120aab326d5efa8f839df82a9c064bf78e893881604051610b57919061199b565b60405180910390a150565b60006004544210610b765760009050610ba8565b600354421015610b9757600354600454610b9091906119bd565b9050610ba8565b42600454610ba591906119bd565b90505b90565b60045481565b60016020528060005260406000206000915090508060000160009054906101000a900460ff16908060000160019054906101000a900460ff16908060010154905083565b60008054906101000a900473ffffffffffffffffffffffffffffffffffffffff1673ffffffffffffffffffffffffffffffffffffffff163373ffffffffffffffffffffffffffffffffffffffff1614610c83576040517f08c379a0000000000000000000000000000000000000000000000000000000008152600401610c7a906115f4565b60405180910390fd5b6004544211610cc7576040517f08c379a0000000000000000000000000000000000000000000000000000000008152600401610cbe90611a3d565b60405180910390fd5b600060035403610d0c576040517f08c379a0000000000000000000000000000000000000000000000000000000008152600401610d0390611aa9565b60405180910390fd5b60008060005b600280549050811015610d8b578260028281548110610d3457610d33611453565b5b9060005260206000209060020201600101541115610d785760028181548110610d6057610d5f611453565b5b90600052602060002090600202016001015492508091505b8080610d83906114b1565b915050610d12565b507f40ab9e7167b6bca5d94e856632cb8a3735fb7a083d90801dd855e869b430b3ee60028281548110610dc157610dc0611453565b5b906000526020600020906002020160000183604051610de1929190611b5e565b60405180910390a15050565b60008054906101000a900473ffffffffffffffffffffffffffffffffffffffff1681565b828054610e1d90611551565b90600052602060002090601f016020900481019282610e3f5760008555610e86565b82601f10610e5857805160ff1916838001178555610e86565b82800160010185558215610e86579182015b82811115610e85578251825591602001919060010190610e6a565b5b509050610e939190610e97565b5090565b5b80821115610eb0576000816000905550600101610e98565b5090565b6000604051905090565b600080fd5b600080fd5b6000819050919050565b610edb81610ec8565b8114610ee657600080fd5b50565b600081359050610ef881610ed2565b92915050565b600060208284031215610f1457610f13610ebe565b5b6000610f2284828501610ee9565b91505092915050565b610f3481610ec8565b82525050565b6000602082019050610f4f6000830184610f2b565b92915050565b600081519050919050565b600082825260208201905092915050565b60005b83811015610f8f578082015181840152602081019050610f74565b83811115610f9e576000848401525b50505050565b6000601f19601f8301169050919050565b6000610fc082610f55565b610fca8185610f60565b9350610fda818560208601610f71565b610fe381610fa4565b840191505092915050565b600060408201905081810360008301526110088185610fb5565b90506110176020830184610f2b565b9392505050565b600073ffffffffffffffffffffffffffffffffffffffff82169050919050565b60006110498261101e565b9050919050565b6110598161103e565b811461106457600080fd5b50565b60008135905061107681611050565b92915050565b60006020828403121561109257611091610ebe565b5b60006110a084828501611067565b91505092915050565b600080fd5b600080fd5b7f4e487b7100000000000000000000000000000000000000000000000000000000600052604160045260246000fd5b6110eb82610fa4565b810181811067ffffffffffffffff8211171561110a576111096110b3565b5b80604052505050565b600061111d610eb4565b905061112982826110e2565b919050565b600067ffffffffffffffff821115611149576111486110b3565b5b61115282610fa4565b9050602081019050919050565b82818337600083830152505050565b600061118161117c8461112e565b611113565b90508281526020810184848401111561119d5761119c6110ae565b5b6111a884828561115f565b509392505050565b600082601f8301126111c5576111c46110a9565b5b81356111d584826020860161116e565b91505092915050565b6000602082840312156111f4576111f3610ebe565b5b600082013567ffffffffffffffff81111561121257611211610ec3565b5b61121e848285016111b0565b91505092915050565b60008115159050919050565b61123c81611227565b82525050565b60006060820190506112576000830186611233565b6112646020830185611233565b6112716040830184610f2b565b949350505050565b6112828161103e565b82525050565b600060208201905061129d6000830184611279565b92915050565b7f4e6f742077697468696e20766f74696e6720706572696f640000000000000000600082015250565b60006112d9601883610f60565b91506112e4826112a3565b602082019050919050565b60006020820190508181036000830152611308816112cc565b9050919050565b7f4e6f74207265676973746572656420746f20766f746500000000000000000000600082015250565b6000611345601683610f60565b91506113508261130f565b602082019050919050565b6000602082019050818103600083015261137481611338565b9050919050565b7f416c726561647920766f74656400000000000000000000000000000000000000600082015250565b60006113b1600d83610f60565b91506113bc8261137b565b602082019050919050565b600060208201905081810360008301526113e0816113a4565b9050919050565b7f496e76616c69642063616e64696461746520696e646578000000000000000000600082015250565b600061141d601783610f60565b9150611428826113e7565b602082019050919050565b6000602082019050818103600083015261144c81611410565b9050919050565b7f4e487b7100000000000000000000000000000000000000000000000000000000600052603260045260246000fd5b7f4e487b7100000000000000000000000000000000000000000000000000000000600052601160045260246000fd5b60006114bc82610ec8565b91507fffffffffffffffffffffffffffffffffffffffffffffffffffffffffffffffff82036114ee576114ed611482565b5b600182019050919050565b600060408201905061150e6000830185611279565b61151b6020830184610f2b565b9392505050565b7f4e487b7100000000000000000000000000000000000000000000000000000000600052602260045260246000fd5b6000600282049050600182168061156957607f821691505b60208210810361157c5761157b611522565b5b50919050565b7f4f6e6c792061646d696e2063616e20706572666f726d2074686973206163746960008201527f6f6e000000000000000000000000000000000000000000000000000000000000602082015250565b60006115de602283610f60565b91506115e982611582565b604082019050919050565b6000602082019050818103600083015261160d816115d1565b9050919050565b7f566f74696e672068617320616c72656164792073746172746564000000000000600082015250565b600061164a601a83610f60565b915061165582611614565b602082019050919050565b600060208201905081810360008301526116798161163d565b9050919050565b7f496e76616c696420766f74657220616464726573730000000000000000000000600082015250565b60006116b6601583610f60565b91506116c182611680565b602082019050919050565b600060208201905081810360008301526116e5816116a9565b9050919050565b7f566f74657220616c726561647920726567697374657265640000000000000000600082015250565b6000611722601883610f60565b915061172d826116ec565b602082019050919050565b6000602082019050818103600083015261175181611715565b9050919050565b7f4174206c656173742074776f2063616e64696461746573207265717569726564600082015250565b600061178e602083610f60565b915061179982611758565b602082019050919050565b600060208201905081810360008301526117bd81611781565b9050919050565b7f4475726174696f6e2073686f756c642062652067726561746572207468616e2060008201527f3000000000000000000000000000000000000000000000000000000000000000602082015250565b6000611820602183610f60565b915061182b826117c4565b604082019050919050565b6000602082019050818103600083015261184f81611813565b9050919050565b600061186182610ec8565b915061186c83610ec8565b9250817fffffffffffffffffffffffffffffffffffffffffffffffffffffffffffffffff04831182151516156118a5576118a4611482565b5b828202905092915050565b60006118bb82610ec8565b91506118c683610ec8565b9250827fffffffffffffffffffffffffffffffffffffffffffffffffffffffffffffffff038211156118fb576118fa611482565b5b828201905092915050565b600060408201905061191b6000830185610f2b565b6119286020830184610f2b565b9392505050565b7f43616e646964617465206e616d652063616e6e6f7420626520656d7074790000600082015250565b6000611965601e83610f60565b91506119708261192f565b602082019050919050565b6000602082019050818103600083015261199481611958565b9050919050565b600060208201905081810360008301526119b58184610fb5565b905092915050565b60006119c882610ec8565b91506119d383610ec8565b9250828210156119e6576119e5611482565b5b828203905092915050565b7f566f74696e6720706572696f64206e6f7420796574206f766572000000000000600082015250565b6000611a27601a83610f60565b9150611a32826119f1565b602082019050919050565b60006020820190508181036000830152611a5681611a1a565b9050919050565b7f566f74696e67206e657665722073746172746564000000000000000000000000600082015250565b6000611a93601483610f60565b9150611a9e82611a5d565b602082019050919050565b60006020820190508181036000830152611ac281611a86565b9050919050565b60008190508160005260206000209050919050565b60008154611aeb81611551565b611af58186610f60565b94506001821660008114611b105760018114611b2257611b55565b60ff1983168652602086019350611b55565b611b2b85611ac9565b60005b83811015611b4d57815481890152600182019150602081019050611b2e565b808801955050505b50505092915050565b60006040820190508181036000830152611b788185611ade565b9050611b876020830184610f2b565b939250505056fea264697066735822122039e1770b9685ef857b959c39c6be2b25ccdb00295708bc078febdde9b500bf9964736f6c634300080d0033",
  "immutableReferences": {},
  "source": "// SPDX-License-Identifier: MIT\npragma solidity 0.8.13;\n\ncontract VotingSystem {\n    struct Candidate {\n        string name;\n        uint256 voteCount;\n    }\n\n    struct Voter {\n        bool isRegistered;\n        bool hasVoted;\n        uint256 votedCandidateIndex;\n    }\n\n    address public admin;\n    mapping(address => Voter) public voters;\n    Candidate[] public candidates;\n    uint256 public votingStart;\n    uint256 public votingEnd;\n\n    event CandidateAdded(string name);\n    event VoterRegistered(address voter);\n    event VoteCast(address voter, uint256 candidateIndex);\n    event VotingStarted(uint256 startTime, uint256 endTime);\n    event VotingEnded(string winningCandidateName, uint256 winningVoteCount);\n\n    modifier onlyAdmin() {\n        require(msg.sender == admin, \"Only admin can perform this action\");\n        _;\n    }\n\n    modifier votingNotStarted() {\n        require(votingStart == 0, \"Voting has already started\");\n        _;\n    }\n\n    modifier duringVotingPeriod() {\n        require(\n            votingStart != 0 && block.timestamp >= votingStart && block.timestamp <= votingEnd,\n            \"Not within voting period\"\n        );\n        _;\n    }\n\n    constructor() {\n        require(msg.sender != address(0), \"Invalid deployer address\");\n        admin = msg.sender;\n        votingStart = 0;\n        votingEnd = 0;\n    }\n\n    function addCandidate(string memory _name) public onlyAdmin votingNotStarted {\n        require(bytes(_name).length > 0, \"Candidate name cannot be empty\");\n        candidates.push(Candidate({\n            name: _name,\n            voteCount: 0\n        }));\n        emit CandidateAdded(_name);\n    }\n\n    function registerVoter(address _voter) public onlyAdmin votingNotStarted {\n        require(_voter != address(0), \"Invalid voter address\");\n        require(!voters[_voter].isRegistered, \"Voter already registered\");\n        voters[_voter] = Voter({\n            isRegistered: true,\n            hasVoted: false,\n            votedCandidateIndex: 0\n        });\n        emit VoterRegistered(_voter);\n    }\n\n    function startVoting(uint256 _durationInMinutes) public onlyAdmin votingNotStarted {\n        require(candidates.length >= 2, \"At least two candidates required\");\n        require(_durationInMinutes > 0, \"Duration should be greater than 0\");\n        votingStart = block.timestamp;\n        votingEnd = votingStart + (_durationInMinutes * 1 minutes);\n        emit VotingStarted(votingStart, votingEnd);\n    }\n\n    function vote(uint256 _candidateIndex) public duringVotingPeriod {\n        Voter storage sender = voters[msg.sender];\n        require(sender.isRegistered, \"Not registered to vote\");\n        require(!sender.hasVoted, \"Already voted\");\n        require(_candidateIndex < candidates.length, \"Invalid candidate index\");\n\n        sender.hasVoted = true;\n        sender.votedCandidateIndex = _candidateIndex;\n        candidates[_candidateIndex].voteCount++;\n\n        emit VoteCast(msg.sender, _candidateIndex);\n    }\n\n    function endVoting() public onlyAdmin {\n        require(block.timestamp > votingEnd, \"Voting period not yet over\");\n        require(votingStart != 0, \"Voting never started\");\n\n        uint256 winningVoteCount = 0;\n        uint256 winningCandidateIndex = 0;\n        for (uint256 i = 0; i < candidates.length; i++) {\n            if (candidates[i].voteCount > winningVoteCount) {\n                winningVoteCount = candidates[i].voteCount;\n                winningCandidateIndex = i;\n            }\n        }\n\n        emit VotingEnded(candidates[winningCandidateIndex].name, winningVoteCount);\n    }\n\n    function getCandidateCount() public view returns (uint256) {\n        return candidates.length;\n    }\n\n    function getVotingTimeRemaining() public view returns (uint256) {\n        if (block.timestamp >= votingEnd) return 0;\n        if (block.timestamp < votingStart) return votingEnd - votingStart;\n        return votingEnd - block.timestamp;\n    }\n}",
  "sourcePath": "C:\\Users\\apoor\\OneDrive\\Documents\\BlockchainVoting\\contracts\\Voting.sol",
  "compiler": {
    "name": "solc",
    "version": "0.8.13+commit.abaa5c0e.Emscripten.clang"
  },
  "schemaVersion": "3.4.16",
  "updatedAt": "2024-09-05T21:36:01.926Z",
  "devdoc": {
    "kind": "dev",
    "methods": {},
    "version": 1
  },
  "userdoc": {
    "kind": "user",
    "methods": {},
    "version": 1
  }
}