{
  "contractName": "Voting",
  "abi": [
    {
      "inputs": [],
      "stateMutability": "nonpayable",
      "type": "constructor"
    },
    {
      "anonymous": false,
      "inputs": [
        {
          "indexed": false,
          "internalType": "string",
          "name": "candidateName",
          "type": "string"
        }
      ],
      "name": "CandidateAdded",
      "type": "event"
    },
    {
      "anonymous": false,
      "inputs": [
        {
          "indexed": false,
          "internalType": "uint256",
          "name": "candidateIndex",
          "type": "uint256"
        }
      ],
      "name": "VoteCast",
      "type": "event"
    },
    {
      "inputs": [
        {
          "internalType": "uint256",
          "name": "",
          "type": "uint256"
        }
      ],
      "name": "candidates",
      "outputs": [
        {
          "internalType": "string",
          "name": "name",
          "type": "string"
        },
        {
          "internalType": "uint256",
          "name": "voteCount",
          "type": "uint256"
        }
      ],
      "stateMutability": "view",
      "type": "function"
    },
    {
      "inputs": [],
      "name": "owner",
      "outputs": [
        {
          "internalType": "address",
          "name": "",
          "type": "address"
        }
      ],
      "stateMutability": "view",
      "type": "function"
    },
    {
      "inputs": [],
      "name": "votingOpen",
      "outputs": [
        {
          "internalType": "bool",
          "name": "",
          "type": "bool"
        }
      ],
      "stateMutability": "view",
      "type": "function"
    },
    {
      "inputs": [
        {
          "internalType": "string",
          "name": "candidateName",
          "type": "string"
        }
      ],
      "name": "addCandidate",
      "outputs": [],
      "stateMutability": "nonpayable",
      "type": "function"
    },
    {
      "inputs": [],
      "name": "startVoting",
      "outputs": [],
      "stateMutability": "nonpayable",
      "type": "function"
    },
    {
      "inputs": [
        {
          "internalType": "uint256",
          "name": "candidateIndex",
          "type": "uint256"
        }
      ],
      "name": "vote",
      "outputs": [],
      "stateMutability": "nonpayable",
      "type": "function"
    },
    {
      "inputs": [],
      "name": "getCandidateCount",
      "outputs": [
        {
          "internalType": "uint256",
          "name": "",
          "type": "uint256"
        }
      ],
      "stateMutability": "view",
      "type": "function"
    }
  ],
  "bytecode": "0x608060405234801561000f575f80fd5b50335f806101000a81548173ffffffffffffffffffffffffffffffffffffffff021916908373ffffffffffffffffffffffffffffffffffffffff1602179055505f60025f6101000a81548160ff021916908315150217905550610fb1806100755f395ff3fe608060405234801561000f575f80fd5b506004361061007b575f3560e01c80633477ee2e116100595780633477ee2e146100c3578063462e91ec146100f45780638da5cb5b14610110578063a95824b41461012e5761007b565b80630121b93f1461007f5780631ec6b60a1461009b57806330a56347146100a5575b5f80fd5b61009960048036038101906100949190610640565b61014c565b005b6100a3610254565b005b6100ad610393565b6040516100ba919061067a565b60405180910390f35b6100dd60048036038101906100d89190610640565b61039f565b6040516100eb92919061071d565b60405180910390f35b61010e60048036038101906101099190610877565b610454565b005b6101186105c7565b60405161012591906108fd565b60405180910390f35b6101366105ea565b6040516101439190610930565b60405180910390f35b60025f9054906101000a900460ff1661019a576040517f08c379a000000000000000000000000000000000000000000000000000000000815260040161019190610993565b60405180910390fd5b60018054905081106101e1576040517f08c379a00000000000000000000000000000000000000000000000000000000081526004016101d8906109fb565b60405180910390fd5b60018082815481106101f6576101f5610a19565b5b905f5260205f2090600202016001015f8282546102139190610a73565b925050819055507f9593d9bd30eff4872ec3bab10360ad82eaac80651801e68f47f0674c38415c3d81604051610249919061067a565b60405180910390a150565b5f8054906101000a900473ffffffffffffffffffffffffffffffffffffffff1673ffffffffffffffffffffffffffffffffffffffff163373ffffffffffffffffffffffffffffffffffffffff16146102e1576040517f08c379a00000000000000000000000000000000000000000000000000000000081526004016102d890610b16565b60405180910390fd5b60025f9054906101000a900460ff1615610330576040517f08c379a000000000000000000000000000000000000000000000000000000000815260040161032790610b7e565b60405180910390fd5b5f60018054905011610377576040517f08c379a000000000000000000000000000000000000000000000000000000000815260040161036e90610be6565b60405180910390fd5b600160025f6101000a81548160ff021916908315150217905550565b5f600180549050905090565b600181815481106103ae575f80fd5b905f5260205f2090600202015f91509050805f0180546103cd90610c31565b80601f01602080910402602001604051908101604052809291908181526020018280546103f990610c31565b80156104445780601f1061041b57610100808354040283529160200191610444565b820191905f5260205f20905b81548152906001019060200180831161042757829003601f168201915b5050505050908060010154905082565b5f8054906101000a900473ffffffffffffffffffffffffffffffffffffffff1673ffffffffffffffffffffffffffffffffffffffff163373ffffffffffffffffffffffffffffffffffffffff16146104e1576040517f08c379a00000000000000000000000000000000000000000000000000000000081526004016104d890610b16565b60405180910390fd5b60025f9054906101000a900460ff1615610530576040517f08c379a000000000000000000000000000000000000000000000000000000000815260040161052790610cd1565b60405180910390fd5b600160405180604001604052808381526020015f815250908060018154018082558091505060019003905f5260205f2090600202015f909190919091505f820151815f0190816105809190610e8c565b506020820151816001015550507ff29562dad1599aea0ebb142466120aab326d5efa8f839df82a9c064bf78e8938816040516105bc9190610f5b565b60405180910390a150565b5f8054906101000a900473ffffffffffffffffffffffffffffffffffffffff1681565b60025f9054906101000a900460ff1681565b5f604051905090565b5f80fd5b5f80fd5b5f819050919050565b61061f8161060d565b8114610629575f80fd5b50565b5f8135905061063a81610616565b92915050565b5f6020828403121561065557610654610605565b5b5f6106628482850161062c565b91505092915050565b6106748161060d565b82525050565b5f60208201905061068d5f83018461066b565b92915050565b5f81519050919050565b5f82825260208201905092915050565b5f5b838110156106ca5780820151818401526020810190506106af565b5f8484015250505050565b5f601f19601f8301169050919050565b5f6106ef82610693565b6106f9818561069d565b93506107098185602086016106ad565b610712816106d5565b840191505092915050565b5f6040820190508181035f83015261073581856106e5565b9050610744602083018461066b565b9392505050565b5f80fd5b5f80fd5b7f4e487b71000000000000000000000000000000000000000000000000000000005f52604160045260245ffd5b610789826106d5565b810181811067ffffffffffffffff821117156107a8576107a7610753565b5b80604052505050565b5f6107ba6105fc565b90506107c68282610780565b919050565b5f67ffffffffffffffff8211156107e5576107e4610753565b5b6107ee826106d5565b9050602081019050919050565b828183375f83830152505050565b5f61081b610816846107cb565b6107b1565b9050828152602081018484840111156108375761083661074f565b5b6108428482856107fb565b509392505050565b5f82601f83011261085e5761085d61074b565b5b813561086e848260208601610809565b91505092915050565b5f6020828403121561088c5761088b610605565b5b5f82013567ffffffffffffffff8111156108a9576108a8610609565b5b6108b58482850161084a565b91505092915050565b5f73ffffffffffffffffffffffffffffffffffffffff82169050919050565b5f6108e7826108be565b9050919050565b6108f7816108dd565b82525050565b5f6020820190506109105f8301846108ee565b92915050565b5f8115159050919050565b61092a81610916565b82525050565b5f6020820190506109435f830184610921565b92915050565b7f566f74696e67206973206e6f74206f70656e00000000000000000000000000005f82015250565b5f61097d60128361069d565b915061098882610949565b602082019050919050565b5f6020820190508181035f8301526109aa81610971565b9050919050565b7f496e76616c69642063616e64696461746520696e6465780000000000000000005f82015250565b5f6109e560178361069d565b91506109f0826109b1565b602082019050919050565b5f6020820190508181035f830152610a12816109d9565b9050919050565b7f4e487b71000000000000000000000000000000000000000000000000000000005f52603260045260245ffd5b7f4e487b71000000000000000000000000000000000000000000000000000000005f52601160045260245ffd5b5f610a7d8261060d565b9150610a888361060d565b9250828201905080821115610aa057610a9f610a46565b5b92915050565b7f4f6e6c7920746865206f776e65722063616e20706572666f726d2074686973205f8201527f616374696f6e0000000000000000000000000000000000000000000000000000602082015250565b5f610b0060268361069d565b9150610b0b82610aa6565b604082019050919050565b5f6020820190508181035f830152610b2d81610af4565b9050919050565b7f566f74696e672068617320616c726561647920737461727465640000000000005f82015250565b5f610b68601a8361069d565b9150610b7382610b34565b602082019050919050565b5f6020820190508181035f830152610b9581610b5c565b9050919050565b7f4e6f2063616e646964617465732068617665206265656e2061646465640000005f82015250565b5f610bd0601d8361069d565b9150610bdb82610b9c565b602082019050919050565b5f6020820190508181035f830152610bfd81610bc4565b9050919050565b7f4e487b71000000000000000000000000000000000000000000000000000000005f52602260045260245ffd5b5f6002820490506001821680610c4857607f821691505b602082108103610c5b57610c5a610c04565b5b50919050565b7f43616e6e6f74206164642063616e6469646174657320616674657220766f74695f8201527f6e67206861732073746172746564000000000000000000000000000000000000602082015250565b5f610cbb602e8361069d565b9150610cc682610c61565b604082019050919050565b5f6020820190508181035f830152610ce881610caf565b9050919050565b5f819050815f5260205f209050919050565b5f6020601f8301049050919050565b5f82821b905092915050565b5f60088302610d4b7fffffffffffffffffffffffffffffffffffffffffffffffffffffffffffffffff82610d10565b610d558683610d10565b95508019841693508086168417925050509392505050565b5f819050919050565b5f610d90610d8b610d868461060d565b610d6d565b61060d565b9050919050565b5f819050919050565b610da983610d76565b610dbd610db582610d97565b848454610d1c565b825550505050565b5f90565b610dd1610dc5565b610ddc818484610da0565b505050565b5b81811015610dff57610df45f82610dc9565b600181019050610de2565b5050565b601f821115610e4457610e1581610cef565b610e1e84610d01565b81016020851015610e2d578190505b610e41610e3985610d01565b830182610de1565b50505b505050565b5f82821c905092915050565b5f610e645f1984600802610e49565b1980831691505092915050565b5f610e7c8383610e55565b9150826002028217905092915050565b610e9582610693565b67ffffffffffffffff811115610eae57610ead610753565b5b610eb88254610c31565b610ec3828285610e03565b5f60209050601f831160018114610ef4575f8415610ee2578287015190505b610eec8582610e71565b865550610f53565b601f198416610f0286610cef565b5f5b82811015610f2957848901518255600182019150602085019450602081019050610f04565b86831015610f465784890151610f42601f891682610e55565b8355505b6001600288020188555050505b505050505050565b5f6020820190508181035f830152610f7381846106e5565b90509291505056fea2646970667358221220f9799385b07b9f74e0a588c10306eb026ed92acfc577d4c083bd76dceacb458864736f6c63430008150033",
  "immutableReferences": {},
  "source": "// SPDX-License-Identifier: MIT\n// pragma solidity ^0.8.0;\n\n// contract Voting {\n//     struct Candidate {\n//         string name;\n//         uint256 voteCount;\n//     }\n\n//     struct Voter {\n//         bool isRegistered;\n//         bool voted;\n//         uint256 vote;\n//     }\n\n//     address public owner;\n//     mapping(address => Voter) public voters;\n//     Candidate[] public candidates;\n//     bool public votingOpen;\n//     bool public votingEnded;\n\n//     // Events\n//     event CandidateAdded(string candidateName);\n//     event VotingStarted();\n//     event VoteCast(address voter, uint256 candidateIndex);\n//     event VotingEnded();\n//     event WinnerDeclared(string winnerName, uint256 winnerVoteCount);\n\n//     modifier onlyOwner() {\n//         require(msg.sender == owner, \"Only the owner can perform this action\");\n//         _;\n//     }\n\n//     modifier votingIsOpen() {\n//         require(votingOpen, \"Voting is not open\");\n//         require(!votingEnded, \"Voting has ended\");\n//         _;\n//     }\n\n//     constructor() {\n//         owner = msg.sender;\n//         votingOpen = false;\n//         votingEnded = false;\n//     }\n\n//     function addCandidate(string memory candidateName) public onlyOwner {\n//         require(!votingOpen, \"Cannot add candidates after voting has started\");\n//         candidates.push(Candidate({\n//             name: candidateName,\n//             voteCount: 0\n//         }));\n//         emit CandidateAdded(candidateName);\n//     }\n\n//     function registerVoter(address _voter) public onlyOwner {\n//         require(!votingOpen, \"Cannot register voters after voting has started\");\n//         require(!voters[_voter].isRegistered, \"Voter is already registered\");\n//         voters[_voter] = Voter(true, false, 0);\n//     }\n\n//     function startVoting() public onlyOwner {\n//         require(!votingOpen, \"Voting has already started\");\n//         require(candidates.length > 0, \"No candidates have been added\");\n//         votingOpen = true;\n//         emit VotingStarted();\n//     }\n\n//     function vote(uint256 candidateIndex) public votingIsOpen {\n//         require(voters[msg.sender].isRegistered, \"You are not registered to vote\");\n//         require(!voters[msg.sender].voted, \"You have already voted\");\n//         require(candidateIndex < candidates.length, \"Invalid candidate index\");\n\n//         voters[msg.sender].voted = true;\n//         voters[msg.sender].vote = candidateIndex;\n//         candidates[candidateIndex].voteCount += 1;\n\n//         emit VoteCast(msg.sender, candidateIndex);\n//     }\n\n//     function endVoting() public onlyOwner votingIsOpen {\n//         votingEnded = true;\n//         votingOpen = false;\n//         emit VotingEnded();\n//     }\n\n//     function getWinner() public view returns (string memory winnerName, uint256 winnerVoteCount) {\n//         require(votingEnded, \"Voting is still ongoing\");\n//         require(candidates.length > 0, \"No candidates were added\");\n\n//         uint256 winningVoteCount = 0;\n//         uint256 winningIndex = 0;\n\n//         for (uint256 i = 0; i < candidates.length; i++) {\n//             if (candidates[i].voteCount > winningVoteCount) {\n//                 winningVoteCount = candidates[i].voteCount;\n//                 winningIndex = i;\n//             }\n//         }\n\n//         winnerName = candidates[winningIndex].name;\n//         winnerVoteCount = winningVoteCount;\n//     }\n\n//     function getCandidates() public view returns (Candidate[] memory) {\n//         return candidates;\n//         }\n// }\n\n\n\n\npragma solidity ^0.8.0;\n\ncontract Voting {\n    struct Candidate {\n        string name;\n        uint256 voteCount;\n    }\n\n    address public owner;\n    Candidate[] public candidates;\n    bool public votingOpen;\n\n    event CandidateAdded(string candidateName);\n    event VoteCast(uint256 candidateIndex);\n\n    constructor() {\n        owner = msg.sender;\n        votingOpen = false;\n    }\n\n    modifier onlyOwner() {\n        require(msg.sender == owner, \"Only the owner can perform this action\");\n        _;\n    }\n\n    function addCandidate(string memory candidateName) public onlyOwner {\n        require(!votingOpen, \"Cannot add candidates after voting has started\");\n        candidates.push(Candidate({\n            name: candidateName,\n            voteCount: 0\n        }));\n        emit CandidateAdded(candidateName);\n    }\n\n    function startVoting() public onlyOwner {\n        require(!votingOpen, \"Voting has already started\");\n        require(candidates.length > 0, \"No candidates have been added\");\n        votingOpen = true;\n    }\n\n    function vote(uint256 candidateIndex) public {\n        require(votingOpen, \"Voting is not open\");\n        require(candidateIndex < candidates.length, \"Invalid candidate index\");\n        candidates[candidateIndex].voteCount += 1;\n        emit VoteCast(candidateIndex);\n    }\n\n    function getCandidateCount() public view returns (uint256) {\n        return candidates.length;\n    }\n}",
  "sourcePath": "C:\\Users\\apoor\\OneDrive\\Documents\\BlockchainVoting\\contracts\\Voting.sol",
  "compiler": {
    "name": "solc",
    "version": "0.8.21+commit.d9974bed.Emscripten.clang"
  },
  "schemaVersion": "3.4.16",
  "updatedAt": "2024-09-05T21:15:16.085Z",
  "devdoc": {
    "kind": "dev",
    "methods": {},
    "version": 1
  },
  "userdoc": {
    "kind": "user",
    "methods": {},
    "version": 1
  }
}