{
  "contractName": "Voting",
  "abi": [
    {
      "inputs": [],
      "stateMutability": "nonpayable",
      "type": "constructor"
    },
    {
      "anonymous": false,
      "inputs": [
        {
          "indexed": false,
          "internalType": "string",
          "name": "candidateName",
          "type": "string"
        }
      ],
      "name": "CandidateAdded",
      "type": "event"
    },
    {
      "anonymous": false,
      "inputs": [],
      "name": "MajorityReached",
      "type": "event"
    },
    {
      "anonymous": false,
      "inputs": [
        {
          "indexed": false,
          "internalType": "address",
          "name": "voter",
          "type": "address"
        },
        {
          "indexed": false,
          "internalType": "uint256",
          "name": "candidateIndex",
          "type": "uint256"
        }
      ],
      "name": "VoteCast",
      "type": "event"
    },
    {
      "anonymous": false,
      "inputs": [],
      "name": "VotingEnded",
      "type": "event"
    },
    {
      "anonymous": false,
      "inputs": [],
      "name": "VotingStarted",
      "type": "event"
    },
    {
      "anonymous": false,
      "inputs": [
        {
          "indexed": false,
          "internalType": "string",
          "name": "winnerName",
          "type": "string"
        },
        {
          "indexed": false,
          "internalType": "uint256",
          "name": "winnerVoteCount",
          "type": "uint256"
        }
      ],
      "name": "WinnerDeclared",
      "type": "event"
    },
    {
      "inputs": [
        {
          "internalType": "uint256",
          "name": "",
          "type": "uint256"
        }
      ],
      "name": "candidates",
      "outputs": [
        {
          "internalType": "string",
          "name": "name",
          "type": "string"
        },
        {
          "internalType": "uint256",
          "name": "voteCount",
          "type": "uint256"
        }
      ],
      "stateMutability": "view",
      "type": "function"
    },
    {
      "inputs": [],
      "name": "owner",
      "outputs": [
        {
          "internalType": "address",
          "name": "",
          "type": "address"
        }
      ],
      "stateMutability": "view",
      "type": "function"
    },
    {
      "inputs": [
        {
          "internalType": "address",
          "name": "",
          "type": "address"
        }
      ],
      "name": "voters",
      "outputs": [
        {
          "internalType": "bool",
          "name": "isRegistered",
          "type": "bool"
        },
        {
          "internalType": "bool",
          "name": "voted",
          "type": "bool"
        },
        {
          "internalType": "uint256",
          "name": "vote",
          "type": "uint256"
        }
      ],
      "stateMutability": "view",
      "type": "function"
    },
    {
      "inputs": [],
      "name": "votingEnded",
      "outputs": [
        {
          "internalType": "bool",
          "name": "",
          "type": "bool"
        }
      ],
      "stateMutability": "view",
      "type": "function"
    },
    {
      "inputs": [],
      "name": "votingOpen",
      "outputs": [
        {
          "internalType": "bool",
          "name": "",
          "type": "bool"
        }
      ],
      "stateMutability": "view",
      "type": "function"
    },
    {
      "inputs": [
        {
          "internalType": "string",
          "name": "candidateName",
          "type": "string"
        }
      ],
      "name": "addCandidate",
      "outputs": [],
      "stateMutability": "nonpayable",
      "type": "function"
    },
    {
      "inputs": [
        {
          "internalType": "address",
          "name": "_voter",
          "type": "address"
        }
      ],
      "name": "registerVoter",
      "outputs": [],
      "stateMutability": "nonpayable",
      "type": "function"
    },
    {
      "inputs": [],
      "name": "startVoting",
      "outputs": [],
      "stateMutability": "nonpayable",
      "type": "function"
    },
    {
      "inputs": [
        {
          "internalType": "uint256",
          "name": "candidateIndex",
          "type": "uint256"
        }
      ],
      "name": "vote",
      "outputs": [],
      "stateMutability": "nonpayable",
      "type": "function"
    },
    {
      "inputs": [],
      "name": "endVoting",
      "outputs": [],
      "stateMutability": "nonpayable",
      "type": "function"
    },
    {
      "inputs": [],
      "name": "getWinner",
      "outputs": [
        {
          "internalType": "string",
          "name": "winnerName",
          "type": "string"
        },
        {
          "internalType": "uint256",
          "name": "winnerVoteCount",
          "type": "uint256"
        }
      ],
      "stateMutability": "nonpayable",
      "type": "function"
    },
    {
      "inputs": [],
      "name": "getCandidates",
      "outputs": [
        {
          "components": [
            {
              "internalType": "string",
              "name": "name",
              "type": "string"
            },
            {
              "internalType": "uint256",
              "name": "voteCount",
              "type": "uint256"
            }
          ],
          "internalType": "struct Voting.Candidate[]",
          "name": "",
          "type": "tuple[]"
        }
      ],
      "stateMutability": "view",
      "type": "function"
    }
  ],
  "bytecode": "0x608060405234801561000f575f80fd5b50335f806101000a81548173ffffffffffffffffffffffffffffffffffffffff021916908373ffffffffffffffffffffffffffffffffffffffff160217905550611ba38061005c5f395ff3fe608060405234801561000f575f80fd5b50600436106100b2575f3560e01c80638da5cb5b1161006f5780638da5cb5b146101635780638e7ea5b2146101815780639d5a0529146101a0578063a3ec138d146101be578063a95824b4146101f0578063c3403ddf1461020e576100b2565b80630121b93f146100b657806306a49fce146100d25780631ec6b60a146100f05780633477ee2e146100fa57806338db6dd31461012b578063462e91ec14610147575b5f80fd5b6100d060048036038101906100cb9190610eaf565b610218565b005b6100da61049c565b6040516100e79190611068565b60405180910390f35b6100f8610591565b005b610114600480360381019061010f9190610eaf565b6106b5565b6040516101229291906110df565b60405180910390f35b61014560048036038101906101409190611167565b61076a565b005b610161600480360381019061015c91906112be565b61092c565b005b61016b610a9f565b6040516101789190611314565b60405180910390f35b610189610ac2565b6040516101979291906110df565b60405180910390f35b6101a8610c7b565b6040516101b59190611347565b60405180910390f35b6101d860048036038101906101d39190611167565b610c8e565b6040516101e793929190611360565b60405180910390f35b6101f8610ccc565b6040516102059190611347565b60405180910390f35b610216610cde565b005b60035f9054906101000a900460ff16610266576040517f08c379a000000000000000000000000000000000000000000000000000000000815260040161025d906113df565b60405180910390fd5b600360019054906101000a900460ff16156102b6576040517f08c379a00000000000000000000000000000000000000000000000000000000081526004016102ad90611447565b60405180910390fd5b60015f3373ffffffffffffffffffffffffffffffffffffffff1673ffffffffffffffffffffffffffffffffffffffff1681526020019081526020015f205f0160019054906101000a900460ff1615610343576040517f08c379a000000000000000000000000000000000000000000000000000000000815260040161033a906114af565b60405180910390fd5b600280549050811061038a576040517f08c379a000000000000000000000000000000000000000000000000000000000815260040161038190611517565b60405180910390fd5b6001805f3373ffffffffffffffffffffffffffffffffffffffff1673ffffffffffffffffffffffffffffffffffffffff1681526020019081526020015f205f0160016101000a81548160ff0219169083151502179055508060015f3373ffffffffffffffffffffffffffffffffffffffff1673ffffffffffffffffffffffffffffffffffffffff1681526020019081526020015f206001018190555060016002828154811061043c5761043b611535565b5b905f5260205f2090600202016001015f828254610459919061158f565b925050819055507fa36cc2bebb74db33e9f88110a07ef56e1b31b24b4c4f51b54b1664266e29f45b33826040516104919291906115c2565b60405180910390a150565b60606002805480602002602001604051908101604052809291908181526020015f905b82821015610588578382905f5260205f2090600202016040518060400160405290815f820180546104ef90611616565b80601f016020809104026020016040519081016040528092919081815260200182805461051b90611616565b80156105665780601f1061053d57610100808354040283529160200191610566565b820191905f5260205f20905b81548152906001019060200180831161054957829003601f168201915b50505050508152602001600182015481525050815260200190600101906104bf565b50505050905090565b5f8054906101000a900473ffffffffffffffffffffffffffffffffffffffff1673ffffffffffffffffffffffffffffffffffffffff163373ffffffffffffffffffffffffffffffffffffffff161461061e576040517f08c379a0000000000000000000000000000000000000000000000000000000008152600401610615906116b6565b60405180910390fd5b60035f9054906101000a900460ff161561066d576040517f08c379a00000000000000000000000000000000000000000000000000000000081526004016106649061171e565b60405180910390fd5b600160035f6101000a81548160ff0219169083151502179055507f877e2548498f42b7975a186b94ef1d32c86d420b7b806dd2be2bea293b89590460405160405180910390a1565b600281815481106106c4575f80fd5b905f5260205f2090600202015f91509050805f0180546106e390611616565b80601f016020809104026020016040519081016040528092919081815260200182805461070f90611616565b801561075a5780601f106107315761010080835404028352916020019161075a565b820191905f5260205f20905b81548152906001019060200180831161073d57829003601f168201915b5050505050908060010154905082565b5f8054906101000a900473ffffffffffffffffffffffffffffffffffffffff1673ffffffffffffffffffffffffffffffffffffffff163373ffffffffffffffffffffffffffffffffffffffff16146107f7576040517f08c379a00000000000000000000000000000000000000000000000000000000081526004016107ee906116b6565b60405180910390fd5b60015f8273ffffffffffffffffffffffffffffffffffffffff1673ffffffffffffffffffffffffffffffffffffffff1681526020019081526020015f205f015f9054906101000a900460ff1615610883576040517f08c379a000000000000000000000000000000000000000000000000000000000815260040161087a90611786565b60405180910390fd5b60405180606001604052806001151581526020015f151581526020015f81525060015f8373ffffffffffffffffffffffffffffffffffffffff1673ffffffffffffffffffffffffffffffffffffffff1681526020019081526020015f205f820151815f015f6101000a81548160ff0219169083151502179055506020820151815f0160016101000a81548160ff0219169083151502179055506040820151816001015590505050565b5f8054906101000a900473ffffffffffffffffffffffffffffffffffffffff1673ffffffffffffffffffffffffffffffffffffffff163373ffffffffffffffffffffffffffffffffffffffff16146109b9576040517f08c379a00000000000000000000000000000000000000000000000000000000081526004016109b0906116b6565b60405180910390fd5b60035f9054906101000a900460ff1615610a08576040517f08c379a00000000000000000000000000000000000000000000000000000000081526004016109ff90611814565b60405180910390fd5b600260405180604001604052808381526020015f815250908060018154018082558091505060019003905f5260205f2090600202015f909190919091505f820151815f019081610a5891906119cf565b506020820151816001015550507ff29562dad1599aea0ebb142466120aab326d5efa8f839df82a9c064bf78e893881604051610a949190611a9e565b60405180910390a150565b5f8054906101000a900473ffffffffffffffffffffffffffffffffffffffff1681565b60605f600360019054906101000a900460ff16610b14576040517f08c379a0000000000000000000000000000000000000000000000000000000008152600401610b0b90611b08565b60405180910390fd5b5f805f5b600280549050811015610b8d578260028281548110610b3a57610b39611535565b5b905f5260205f209060020201600101541115610b7a5760028181548110610b6457610b63611535565b5b905f5260205f2090600202016001015492508091505b8080610b8590611b26565b915050610b18565b5060028181548110610ba257610ba1611535565b5b905f5260205f2090600202015f018054610bbb90611616565b80601f0160208091040260200160405190810160405280929190818152602001828054610be790611616565b8015610c325780601f10610c0957610100808354040283529160200191610c32565b820191905f5260205f20905b815481529060010190602001808311610c1557829003601f168201915b505050505093508192507fd6d1eeba639254bd05e36261ae299af245328ab997fd9b7823d5fff17f1b74a48484604051610c6d9291906110df565b60405180910390a150509091565b600360019054906101000a900460ff1681565b6001602052805f5260405f205f91509050805f015f9054906101000a900460ff1690805f0160019054906101000a900460ff16908060010154905083565b60035f9054906101000a900460ff1681565b5f8054906101000a900473ffffffffffffffffffffffffffffffffffffffff1673ffffffffffffffffffffffffffffffffffffffff163373ffffffffffffffffffffffffffffffffffffffff1614610d6b576040517f08c379a0000000000000000000000000000000000000000000000000000000008152600401610d62906116b6565b60405180910390fd5b60035f9054906101000a900460ff16610db9576040517f08c379a0000000000000000000000000000000000000000000000000000000008152600401610db0906113df565b60405180910390fd5b600360019054906101000a900460ff1615610e09576040517f08c379a0000000000000000000000000000000000000000000000000000000008152600401610e0090611447565b60405180910390fd5b6001600360016101000a81548160ff0219169083151502179055505f60035f6101000a81548160ff0219169083151502179055507f7a19ed057db79e3c2fa0b97a54b43bef4fce74b31bb6c01af514b9a18a7f70ab60405160405180910390a1565b5f604051905090565b5f80fd5b5f80fd5b5f819050919050565b610e8e81610e7c565b8114610e98575f80fd5b50565b5f81359050610ea981610e85565b92915050565b5f60208284031215610ec457610ec3610e74565b5b5f610ed184828501610e9b565b91505092915050565b5f81519050919050565b5f82825260208201905092915050565b5f819050602082019050919050565b5f81519050919050565b5f82825260208201905092915050565b5f5b83811015610f3a578082015181840152602081019050610f1f565b5f8484015250505050565b5f601f19601f8301169050919050565b5f610f5f82610f03565b610f698185610f0d565b9350610f79818560208601610f1d565b610f8281610f45565b840191505092915050565b610f9681610e7c565b82525050565b5f604083015f8301518482035f860152610fb68282610f55565b9150506020830151610fcb6020860182610f8d565b508091505092915050565b5f610fe18383610f9c565b905092915050565b5f602082019050919050565b5f610fff82610eda565b6110098185610ee4565b93508360208202850161101b85610ef4565b805f5b8581101561105657848403895281516110378582610fd6565b945061104283610fe9565b925060208a0199505060018101905061101e565b50829750879550505050505092915050565b5f6020820190508181035f8301526110808184610ff5565b905092915050565b5f82825260208201905092915050565b5f6110a282610f03565b6110ac8185611088565b93506110bc818560208601610f1d565b6110c581610f45565b840191505092915050565b6110d981610e7c565b82525050565b5f6040820190508181035f8301526110f78185611098565b905061110660208301846110d0565b9392505050565b5f73ffffffffffffffffffffffffffffffffffffffff82169050919050565b5f6111368261110d565b9050919050565b6111468161112c565b8114611150575f80fd5b50565b5f813590506111618161113d565b92915050565b5f6020828403121561117c5761117b610e74565b5b5f61118984828501611153565b91505092915050565b5f80fd5b5f80fd5b7f4e487b71000000000000000000000000000000000000000000000000000000005f52604160045260245ffd5b6111d082610f45565b810181811067ffffffffffffffff821117156111ef576111ee61119a565b5b80604052505050565b5f611201610e6b565b905061120d82826111c7565b919050565b5f67ffffffffffffffff82111561122c5761122b61119a565b5b61123582610f45565b9050602081019050919050565b828183375f83830152505050565b5f61126261125d84611212565b6111f8565b90508281526020810184848401111561127e5761127d611196565b5b611289848285611242565b509392505050565b5f82601f8301126112a5576112a4611192565b5b81356112b5848260208601611250565b91505092915050565b5f602082840312156112d3576112d2610e74565b5b5f82013567ffffffffffffffff8111156112f0576112ef610e78565b5b6112fc84828501611291565b91505092915050565b61130e8161112c565b82525050565b5f6020820190506113275f830184611305565b92915050565b5f8115159050919050565b6113418161132d565b82525050565b5f60208201905061135a5f830184611338565b92915050565b5f6060820190506113735f830186611338565b6113806020830185611338565b61138d60408301846110d0565b949350505050565b7f566f74696e67206973206e6f74206f70656e00000000000000000000000000005f82015250565b5f6113c9601283611088565b91506113d482611395565b602082019050919050565b5f6020820190508181035f8301526113f6816113bd565b9050919050565b7f566f74696e672068617320656e646564000000000000000000000000000000005f82015250565b5f611431601083611088565b915061143c826113fd565b602082019050919050565b5f6020820190508181035f83015261145e81611425565b9050919050565b7f596f75206861766520616c726561647920766f746564000000000000000000005f82015250565b5f611499601683611088565b91506114a482611465565b602082019050919050565b5f6020820190508181035f8301526114c68161148d565b9050919050565b7f496e76616c69642063616e64696461746520696e6465780000000000000000005f82015250565b5f611501601783611088565b915061150c826114cd565b602082019050919050565b5f6020820190508181035f83015261152e816114f5565b9050919050565b7f4e487b71000000000000000000000000000000000000000000000000000000005f52603260045260245ffd5b7f4e487b71000000000000000000000000000000000000000000000000000000005f52601160045260245ffd5b5f61159982610e7c565b91506115a483610e7c565b92508282019050808211156115bc576115bb611562565b5b92915050565b5f6040820190506115d55f830185611305565b6115e260208301846110d0565b9392505050565b7f4e487b71000000000000000000000000000000000000000000000000000000005f52602260045260245ffd5b5f600282049050600182168061162d57607f821691505b6020821081036116405761163f6115e9565b5b50919050565b7f4f6e6c7920746865206f776e65722063616e20706572666f726d2074686973205f8201527f616374696f6e0000000000000000000000000000000000000000000000000000602082015250565b5f6116a0602683611088565b91506116ab82611646565b604082019050919050565b5f6020820190508181035f8301526116cd81611694565b9050919050565b7f566f74696e672068617320616c726561647920737461727465640000000000005f82015250565b5f611708601a83611088565b9150611713826116d4565b602082019050919050565b5f6020820190508181035f830152611735816116fc565b9050919050565b7f566f74657220697320616c7265616479207265676973746572656400000000005f82015250565b5f611770601b83611088565b915061177b8261173c565b602082019050919050565b5f6020820190508181035f83015261179d81611764565b9050919050565b7f43616e6e6f74206164642063616e6469646174657320616674657220766f74695f8201527f6e67206861732073746172746564000000000000000000000000000000000000602082015250565b5f6117fe602e83611088565b9150611809826117a4565b604082019050919050565b5f6020820190508181035f83015261182b816117f2565b9050919050565b5f819050815f5260205f209050919050565b5f6020601f8301049050919050565b5f82821b905092915050565b5f6008830261188e7fffffffffffffffffffffffffffffffffffffffffffffffffffffffffffffffff82611853565b6118988683611853565b95508019841693508086168417925050509392505050565b5f819050919050565b5f6118d36118ce6118c984610e7c565b6118b0565b610e7c565b9050919050565b5f819050919050565b6118ec836118b9565b6119006118f8826118da565b84845461185f565b825550505050565b5f90565b611914611908565b61191f8184846118e3565b505050565b5b81811015611942576119375f8261190c565b600181019050611925565b5050565b601f8211156119875761195881611832565b61196184611844565b81016020851015611970578190505b61198461197c85611844565b830182611924565b50505b505050565b5f82821c905092915050565b5f6119a75f198460080261198c565b1980831691505092915050565b5f6119bf8383611998565b9150826002028217905092915050565b6119d882610f03565b67ffffffffffffffff8111156119f1576119f061119a565b5b6119fb8254611616565b611a06828285611946565b5f60209050601f831160018114611a37575f8415611a25578287015190505b611a2f85826119b4565b865550611a96565b601f198416611a4586611832565b5f5b82811015611a6c57848901518255600182019150602085019450602081019050611a47565b86831015611a895784890151611a85601f891682611998565b8355505b6001600288020188555050505b505050505050565b5f6020820190508181035f830152611ab68184611098565b905092915050565b7f566f74696e67206973207374696c6c206f6e676f696e670000000000000000005f82015250565b5f611af2601783611088565b9150611afd82611abe565b602082019050919050565b5f6020820190508181035f830152611b1f81611ae6565b9050919050565b5f611b3082610e7c565b91507fffffffffffffffffffffffffffffffffffffffffffffffffffffffffffffffff8203611b6257611b61611562565b5b60018201905091905056fea2646970667358221220d018375d17e945f7b6998ab47f4a40b4af3f6f12d2094289e1367908f30cd2d064736f6c63430008150033",
  "immutableReferences": {},
  "source": "// SPDX-License-Identifier: MIT\r\npragma solidity ^0.8.0;\r\n\r\ncontract Voting {\r\n    struct Candidate {\r\n        string name;\r\n        uint256 voteCount;\r\n    }\r\n\r\n    struct Voter {\r\n        // string voterID;\r\n        bool isRegistered;\r\n        bool voted;\r\n        uint256 vote;\r\n        // uint256 constituencyIndex;\r\n    }\r\n    \r\n    struct Constituency {\r\n        uint256 index;\r\n    }\r\n\r\n    address public owner;\r\n    mapping(address => Voter) public voters;\r\n    Candidate[] public candidates;\r\n    bool public votingOpen;\r\n    bool public votingEnded;\r\n\r\n    // Events\r\n    event CandidateAdded(string candidateName);\r\n    event VotingStarted();\r\n    event VoteCast(address voter, uint256 candidateIndex);\r\n    event VotingEnded();\r\n    event WinnerDeclared(string winnerName, uint256 winnerVoteCount);\r\n    event MajorityReached();\r\n    \r\n    modifier onlyOwner() {\r\n        require(msg.sender == owner, \"Only the owner can perform this action\");\r\n        _;\r\n    }\r\n\r\n    modifier votingIsOpen() {\r\n        require(votingOpen, \"Voting is not open\");\r\n        require(!votingEnded, \"Voting has ended\");\r\n        _;\r\n    }\r\n\r\n    constructor() {\r\n        owner = msg.sender;\r\n    }\r\n\r\n    // function addVoter(string votID, uint256 constIndex) public onlyOwner {\r\n    //     require(!votingOpen, \"Cannot add voters after voting has started\");\r\n    //     voters.push(Voter({\r\n    //         voterID: votID,\r\n    //         voted: false,\r\n    //         vote: -1,\r\n    //         constituencyIndex: constIndex \r\n    //     }));\r\n    //     emit VoterAdded();\r\n    // }\r\n       function addCandidate(string memory candidateName) public onlyOwner {\r\n        require(!votingOpen, \"Cannot add candidates after voting has started\");\r\n        candidates.push(Candidate({\r\n            name: candidateName,\r\n            voteCount: 0\r\n        }));\r\n        emit CandidateAdded(candidateName);\r\n    }\r\n\r\n    // function registerVoter(address _voter, uint256 constIndex) public onlyOwner{\r\n    //     // require(!voters[_voter].isRegistered, \"Voter is already registered\");\r\n    //     voters.push(Voter({\r\n    //         // isRegistered: true,\r\n    //         voted: false,\r\n    //         vote: -1,\r\n    //         constituencyIndex: constIndex\r\n    //     }));\r\n    // }\r\n    function registerVoter(address _voter) public onlyOwner {\r\n        require(!voters[_voter].isRegistered, \"Voter is already registered\");\r\n        voters[_voter] = Voter(true, false, 0);\r\n        // emit VoterRegistered(_voter);\r\n        }\r\n\r\n    function startVoting() public onlyOwner {\r\n        require(!votingOpen, \"Voting has already started\");\r\n        votingOpen = true;\r\n        emit VotingStarted();\r\n    }\r\n\r\n    function vote(uint256 candidateIndex) public votingIsOpen {\r\n        require(!voters[msg.sender].voted, \"You have already voted\");\r\n        require(candidateIndex < candidates.length, \"Invalid candidate index\");\r\n\r\n        voters[msg.sender].voted = true;\r\n        voters[msg.sender].vote = candidateIndex;\r\n        candidates[candidateIndex].voteCount += 1;\r\n\r\n        emit VoteCast(msg.sender, candidateIndex);\r\n    }\r\n\r\n    function endVoting() public onlyOwner votingIsOpen {\r\n        votingEnded = true;\r\n        votingOpen = false;\r\n        emit VotingEnded();\r\n    }\r\n\r\n    function getWinner() public returns (string memory winnerName, uint256 winnerVoteCount) {\r\n        require(votingEnded, \"Voting is still ongoing\");\r\n\r\n        uint256 winningVoteCount = 0;\r\n        uint256 winningIndex = 0;\r\n\r\n        for (uint256 i = 0; i < candidates.length; i++) {\r\n            if (candidates[i].voteCount > winningVoteCount) {\r\n                winningVoteCount = candidates[i].voteCount;\r\n                winningIndex = i;\r\n            }\r\n        }\r\n\r\n        winnerName = candidates[winningIndex].name;\r\n        winnerVoteCount = winningVoteCount;\r\n\r\n        emit WinnerDeclared(winnerName, winnerVoteCount);\r\n    }\r\n\r\n    function getCandidates() public view returns (Candidate[] memory) {\r\n        return candidates;\r\n    }\r\n}",
  "sourcePath": "C:\\Users\\apoor\\OneDrive\\Documents\\BlockchainVoting\\contracts\\ev.sol",
  "compiler": {
    "name": "solc",
    "version": "0.8.21+commit.d9974bed.Emscripten.clang"
  },
  "schemaVersion": "3.4.16",
  "updatedAt": "2024-09-05T20:17:49.048Z",
  "devdoc": {
    "kind": "dev",
    "methods": {},
    "version": 1
  },
  "userdoc": {
    "kind": "user",
    "methods": {},
    "version": 1
  }
}